:100000000C943E000C94D4020C94D4020C94D402B0
:100010000C94D4020C94D4020C94D4020C94D40208
:100020000C94D4020C94D4020C94D4020C94D402F8
:100030000C94D4020C94D4020C94D4020C94D402E8
:100040000C94D4020C94D4020C94D4020C94D402D8
:100050000C94D4020C94D4020C94D4020C94D402C8
:100060000C94D4020C94D402010001120005B601D4
:1000700012011580011501160005C80011241FBECC
:10008000CFEFD8E0DEBFCDBFE8E6F0E040E017C03C
:10009000B591A59135912591059107FD0CC09591DC
:1000A0008591EF01F92FE82F05900D92A217B30764
:1000B000D9F7FE0104C01D92A217B307E1F7EB3791
:1000C000F40731F70E94C6010C94C902F894FFCFDF
:1000D0006F927F928F92EF92FF920F931F93CF9325
:1000E000DF9300D0CDB7DEB7A82FCB011982FC017A
:1000F0002491A7FD2081269526952695322F3770CD
:100100003983FC012491A7FD20812770220F220F43
:10011000220F232B29830097A10509F451C08A01DE
:10012000FC018491A7FD808187FB882780F98823C3
:1001300019F08130D1F038C00F2EFAE0FF2EF02DEB
:10014000E12CCE0101963C0120E8822EAE014E5FEB
:100150005F4F882DB3010E948F019A81913009F47D
:10016000E394FA94F110F2CF21C00F2EFAE0FF2EA3
:10017000F02DE12CCE0101963C01E0E88E2EAE017F
:100180004E5F5F4F882DB3010E948F019A819111BC
:1001900001C0E394E3ECF9E03197F1F700C000000F
:1001A000FA94F110ECCF02C0E12C80E0F9E0EF12FC
:1001B00003C0F801108205C091E0F801908301C0EE
:1001C00080E00F900F90DF91CF911F910F91FF90E2
:0A01D000EF908F907F906F900895DC
:1001DA00FC01892B09F451C09081969596959695C4
:1001EA009770662319F06130E9F049C080818F7BEE
:1001FA0080838770E82FF0E0EE0FFF1FE45FFE4F69
:10020A000190F081E02D408121E030E0B90102C087
:10021A00660F771F9A95E2F7CB0180958423808336
:10022A0081E00895A081A064A083A770B0E0AA0F1E
:10023A00BB1FA45FBE4F0D90BC91A02D81E08C9393
:10024A008081E82FE770F0E0EE0FFF1FE45FFE4FBA
:10025A000190F081E02D408186958695869587707C
:10026A0021E030E0B90102C0660F771F8A95E2F7F4
:10027A00CB01842B808381E0089580E0089580E09B
:02028A000895D5
:10028C00FC01892B09F441C0908196959695969521
:10029C009770662319F06130E9F039C080818F7B4B
:1002AC0080838770E82FF0E0EE0FFF1FEA5FFE4FB0
:1002BC000190F081E02D408121E030E0B90102C0D5
:1002CC00660F771F9A95E2F7CB0180958423808384
:1002DC0081E008958081806480838770E82FF0E04E
:1002EC00EE0FFF1FEA5FFE4F0190F081E02D408181
:1002FC0021E030E0B90102C0660F771F9A95E2F752
:10030C00CB01842B808381E0089580E0089580E008
:02031C00089542
:10031E00CF92DF92EF926B01E82E61157105810588
:10032E0039F1FB018491E7FC80818695869586954F
:10033E00877041155105F1F0F6019491E7FC90811B
:10034E009770E92FF0E0EE0FFF1FE050FF4F019086
:10035E00F081E02D208130E0B90102C075956795DE
:10036E008A95E2F7CB018170FA01808381E003C0A8
:0E037E0080E001C080E0EF90DF90CF90089506
:10038C0085E191E0A0E8E82EF92E0A2FBC018A2F16
:10039C000E945D028093130182E191E0A0E8182F86
:1003AC00D92FCA2FBC018A2F0E948E028093130171
:1003BC0044E151E0612F7D2F8C2F0E9468008091C9
:1003CC001401811108C06E2D7F2D802F0E94F90120
:1003DC0080931301EDCF6E2D7F2D802F0E942B0269
:0603EC0080931301E5CF30
:1003F200CF93DF930F92CDB7DEB79B01482FFB015E
:10040200849147FD808187709981987F892B8983A8
:10041200F901949147FD908196959873877C892B79
:1004220080648983F901949147FD908197FB992714
:1004320090F990FB87F98983232B242B31F061E01B
:10044200CE0101960E94460101C080E00F90DF912B
:04045200CF910895A9
:10045600CF93DF930F92CDB7DEB79B01482FFB01F9
:10046600849147FD808187709981987F892B898344
:10047600F901949147FD908196959873877C892B15
:1004860080648983F901949147FD908197FB9927B0
:1004960090F990FB87F98983232B242B31F060E0B8
:1004A600CE0101960E94460101C080E00F90DF91C7
:0404B600CF91089545
:1004BA00CF93DF930F92CDB7DEB79B01482FFB0195
:1004CA00849147FD808187709981987F892B8983E0
:1004DA00F901949147FD908196959873877C892BB1
:1004EA0080648983F901949147FD908197FB99274C
:1004FA0090F990FB87F98983232B242B29F0CE01CD
:10050A0001960E94B80201C080E00F90DF91CF915E
:02051A00089542
:10051C00CF93DF930F92CDB7DEB79B01482F198293
:10052C00FB01849147FD8081869586958695982F51
:10053C0097709983F901849147FD80818770880FAA
:10054C00880F880F892B8983232B242B31F060E0B3
:10055C00CE0101960E94ED0001C080E00F90DF916A
:04056C00CF9108958E
:10057000CF93DF93009749F0EC0161E00E94ED001A
:1005800060E0CE010E94460101C080E0DF91CF9182
:020590000895CC
:10059200EC010E94D9020E94D802CE010E94DA0226
:0605A200CE010E94D6020A
:0405A8000C940000AF
:0405AC000E94660043
:0205B0000895AC
:0205B2000895AA
:0205B4000895A8
:0605B600230026002900CD
:0605BC00250028002B00C1
:0605C200240027002A00BE
:0105C800D062
:02000004008278
:0300000052D9FFD3
:02000004008377
:01000000FF00
:00000001FF
