:100000000C943E000C945B000C945B000C945B0021
:100010000C945B000C945B000C945B000C945B00F4
:100020000C945B000C945B000C945B000C945B00E4
:100030000C945B000C945B000C945B000C945B00D4
:100040000C945B000C945B000C945B000C945B00C4
:100050000C945B000C945B000C945B000C945B00B4
:100060000C945B000C945B003001320134013601CA
:1000700038013A013C0141013E01400111241FBEFB
:10008000CFEFD8E0DEBFCDBF11E0A0E0B1E0EAE302
:10009000F3E002C005900D92A431B107D9F721E039
:1000A000A4E1B1E001C01D92A431B207E1F70E94C2
:1000B000E8000C949B010C940000FC01892B09F4CE
:1000C00041C090819695969596959770662319F004
:1000D0006130E9F039C080818F7B80838770E82FA1
:1000E000F0E0EE0FFF1FEA5FFE4F0190F081E02D80
:1000F000408121E030E0B90102C0660F771F9A9578
:10010000E2F7CB0180958423808381E0089580818C
:10011000806480838770E82FF0E0EE0FFF1FEA5FB6
:10012000FE4F0190F081E02D408121E030E0B901E7
:1001300002C0660F771F9A95E2F7CB01842B80836C
:1001400081E0089580E0089580E00895FC01892B06
:10015000D9F190819695969596959770662319F0AA
:100160006130D1F033C0E081E770F0E0EE0FFF1FA7
:10017000E050FF4F0190F081E02D408121E030E020
:10018000B90102C0660F771F9A95E2F7CB018095FF
:100190008423808381E00895E081E770F0E0EE0F32
:1001A000FF1FE050FF4F0190F081E02D408121E0E2
:1001B00030E0B90102C0660F771F9A95E2F7CB01D4
:1001C000842B808381E0089580E0089580E0089585
:1001D0008CE091E00E94F20068E08CE091E00E94E7
:1001E0001D01FFCFCF93DF93009719F1EC0161E080
:1001F0000E945D0061E0CE0101960E945D0061E019
:10020000CE0102960E945D0061E0CE0103960E943D
:100210005D0061E0CE0104960E945D0061E0CE01C8
:1002200005960E945D0061E0CE0106960E945D0089
:1002300001C080E0DF91CF910895CF93DF93EC016F
:10024000892B09F46CC06A3008F06BC0862F90E0EF
:100250008A309105B0F4FC01EC5CFF4F0C949501E1
:100260006FE30FC066E00DC06BE50BC06FE409C023
:1002700066E607C06DE605C06DE703C06FE701C025
:100280006FE620E030E070E0FE01E20FF31FAB010B
:10029000022E02C0559547950A94E2F7808140FBF3
:1002A00087F980832F5F3F4F2730310569F76881D9
:1002B00067FB662760F9CE010E94A600698167FB93
:1002C000662760F9CE0101960E94A6006A8167FB4D
:1002D000662760F9CE0102960E94A6006B8167FB3B
:1002E000662760F9CE0103960E94A6006C8167FB29
:1002F000662760F9CE0104960E94A6006D8167FB17
:10030000662760F9CE0105960E94A6006E8167FB04
:10031000662760F9CE0106960E94A60003C080E021
:1003200001C080E0DF91CF910895EE0FFF1F05908F
:0A033000F491E02D0994F894FFCF3A
:10033A00250028002B00240027002A000008101896
:04034A002028020065
:02000004008278
:0300000052D9FFD3
:02000004008377
:01000000FF00
:00000001FF
