:100000000C9434000C9451000C9451000C94510049
:100010000C9451000C9451000C9451000C9451001C
:100020000C9451000C9451000C9451000C9451000C
:100030000C9451000C9451000C9451000C945100FC
:100040000C9451000C9451000C9451000C945100EC
:100050000C9451000C9451000C9451000C945100DC
:100060000C9451000C94510011241FBECFEFD8E026
:10007000DEBFCDBF11E0A0E0B1E0E2EBF4E002C0F2
:1000800005900D92A431B107D9F721E0A4E1B1E0C8
:1000900001C01D92A631B207E1F70E9433020C9411
:1000A00057020C940000CF93DF931F92CDB7DEB7B9
:1000B000FC013081432F47709981907C232F269536
:1000C0002873942B922B37FB332730F9906430FB45
:1000D00097F99983EF2B29F0CE0101960E94220215
:1000E00001C080E00F90DF91CF910895CF93DF930F
:1000F0001F92CDB7DEB7FC013081432F4770998145
:10010000907C232F26952873942B922B37FB332733
:1001100030F9906430FB97F99983EF2B31F061E06F
:10012000CE0101960E94B10101C080E00F90DF91E5
:10013000CF910895CF93DF931F92CDB7DEB7FC0127
:100140003081432F47709981907C232F2695287307
:10015000942B922B37FB332730F9906430FB97F9BF
:100160009983EF2B31F060E0CE0101960E94B1013E
:1001700001C080E00F90DF91CF910895CF93DF937E
:100180001F92CDB7DEB7FC019081292F26952695C9
:10019000269527709770990F990F990F922B998335
:1001A000EF2B31F060E0CE0101960E94580101C0B2
:1001B00080E00F90DF91CF9108950F931F93CF931D
:1001C000DF9300D000D0CDB7DEB7FC019081892F3E
:1001D00086958695869587709770990F990F990FD8
:1001E000982B99831A821B82309709F457C08B0190
:1001F000808187FB882780F990E0009719F00197AC
:10020000F9F03CC01B828B818331D0F5BE016C5F5D
:100210007F4FCE0101960E94FA019C81913019F422
:100220009A819F5F9A83E3ECF9E03197F1F700C080
:1002300000009B819F5F9B839B81933138F323C098
:100240001B828B818331F0F4BE016C5F7F4FCE0146
:1002500001960E94FA019C81911103C09A819F5FCF
:100260009A83E3ECF9E03197F1F700C000009B813D
:100270009F5F9B839B81933138F305C080E003C06F
:1002800081E001C081E09A81933119F4F801108274
:1002900003C091E0F80190831A8201C080E00F90C2
:1002A0000F900F900F90DF91CF911F910F910895B4
:1002B000FC01892B09F451C09081969596959695ED
:1002C0009770662319F06130E9F049C080818F7B17
:1002D00080838770E82FF0E0EE0FFF1FE45FFE4F92
:1002E0000190F081E02D408121E030E0B90102C0B1
:1002F000660F771F9A95E2F7CB0180958423808360
:1003000081E00895A081A064A083A770B0E0AA0F47
:10031000BB1FA45FBE4F0D90BC91A02D81E08C93BC
:100320008081E82FE770F0E0EE0FFF1FE45FFE4FE3
:100330000190F081E02D40818695869586958770A5
:1003400021E030E0B90102C0660F771F8A95E2F71D
:10035000CB01842B808381E0089580E0089580E0C4
:100360000895FC01892B09F441C0908196959695DA
:1003700096959770662319F06130E9F039C0808155
:100380008F7B80838770E82FF0E0EE0FFF1FEA5F1E
:10039000FE4F0190F081E02D408121E030E0B90175
:1003A00002C0660F771F9A95E2F7CB0180958423F0
:1003B000808381E008958081806480838770E82F46
:1003C000F0E0EE0FFF1FEA5FFE4F0190F081E02D9D
:1003D000408121E030E0B90102C0660F771F9A9595
:1003E000E2F7CB01842B808381E0089580E00895BB
:1003F00080E00895FC01892B09F1908196959695EE
:100400009695977061157105D9F0E081E770F0E07D
:10041000EE0FFF1FE050FF4F0190F081E02D808133
:10042000282F30E0A90102C0559547959A95E2F72B
:10043000CA018170FB01808381E0089580E0089506
:1004400080E00895CF93DF93009749F0EC0161E0DD
:100450000E94580160E0CE010E94B10101C080E01D
:10046000DF91CF91089583E191E00E945300809342
:10047000150182E191E00E94BE008093150164E1C4
:1004800071E082E191E00E94DD0080911401811110
:1004900007C083E191E00E94760080931501EFCFC1
:1004A00083E191E00E949A0080931501E8CFF894CF
:0204B000FFCF7C
:1004B200230026002900250028002B002400270005
:0404C2002A0080D0BC
:02000004008278
:0300000052D9FFD3
:02000004008377
:01000000FF00
:00000001FF
